{
  "_format": "hh-sol-artifact-1",
  "contractName": "InsuranceFactory",
  "sourceName": "contracts/InsuranceFactory.sol",
  "abi": [
    {
      "inputs": [],
      "stateMutability": "payable",
      "type": "constructor"
    },
    {
      "anonymous": false,
      "inputs": [
        {
          "indexed": true,
          "internalType": "address",
          "name": "insured",
          "type": "address"
        },
        {
          "indexed": false,
          "internalType": "string",
          "name": "airlineCompany",
          "type": "string"
        },
        {
          "indexed": false,
          "internalType": "uint256",
          "name": "flightNumber",
          "type": "uint256"
        },
        {
          "indexed": false,
          "internalType": "uint256",
          "name": "premium",
          "type": "uint256"
        },
        {
          "indexed": false,
          "internalType": "uint256",
          "name": "payout",
          "type": "uint256"
        },
        {
          "indexed": false,
          "internalType": "uint256",
          "name": "departureDate",
          "type": "uint256"
        },
        {
          "indexed": false,
          "internalType": "uint256",
          "name": "timestamp",
          "type": "uint256"
        }
      ],
      "name": "NewInsurance",
      "type": "event"
    },
    {
      "inputs": [
        {
          "internalType": "string",
          "name": "_airlineCompany",
          "type": "string"
        },
        {
          "internalType": "uint256",
          "name": "_flightNumber",
          "type": "uint256"
        },
        {
          "internalType": "uint256",
          "name": "_premium",
          "type": "uint256"
        },
        {
          "internalType": "uint256",
          "name": "_payout",
          "type": "uint256"
        },
        {
          "internalType": "uint256",
          "name": "_departureDate",
          "type": "uint256"
        }
      ],
      "name": "createInsurance",
      "outputs": [],
      "stateMutability": "payable",
      "type": "function"
    },
    {
      "inputs": [],
      "name": "endContract",
      "outputs": [],
      "stateMutability": "nonpayable",
      "type": "function"
    },
    {
      "inputs": [],
      "name": "getAllInsurances",
      "outputs": [
        {
          "internalType": "contract Insurance[]",
          "name": "",
          "type": "address[]"
        }
      ],
      "stateMutability": "view",
      "type": "function"
    },
    {
      "inputs": [],
      "name": "getBalance",
      "outputs": [
        {
          "internalType": "uint256",
          "name": "",
          "type": "uint256"
        }
      ],
      "stateMutability": "view",
      "type": "function"
    },
    {
      "inputs": [],
      "name": "getProvider",
      "outputs": [
        {
          "internalType": "address",
          "name": "",
          "type": "address"
        }
      ],
      "stateMutability": "view",
      "type": "function"
    },
    {
      "inputs": [],
      "name": "getResidualEth",
      "outputs": [],
      "stateMutability": "payable",
      "type": "function"
    },
    {
      "inputs": [
        {
          "internalType": "uint256",
          "name": "_payout",
          "type": "uint256"
        }
      ],
      "name": "hasBalanceToCoverPayout",
      "outputs": [
        {
          "internalType": "bool",
          "name": "",
          "type": "bool"
        }
      ],
      "stateMutability": "view",
      "type": "function"
    },
    {
      "stateMutability": "payable",
      "type": "receive"
    }
  ],
  "bytecode": "0x608060405233600160006101000a81548173ffffffffffffffffffffffffffffffffffffffff021916908373ffffffffffffffffffffffffffffffffffffffff16021790555030600260006101000a81548173ffffffffffffffffffffffffffffffffffffffff021916908373ffffffffffffffffffffffffffffffffffffffff1602179055506001600260146101000a81548160ff0219169083151502179055506117fb806100b06000396000f3fe6080604052600436106200007f5760003560e01c8063337b5edd1162000055578063337b5edd1462000130578063483d45bd146200013c578063bb6e7de9146200016c578063d0365fbf14620001865762000087565b80630d531609146200008c57806311165ee714620000d057806312065fe014620001005762000087565b366200008757005b600080fd5b3480156200009957600080fd5b50620000b86004803603810190620000b291906200074d565b620001a6565b604051620000c79190620009e2565b60405180910390f35b348015620000dd57600080fd5b50620000e8620001fd565b604051620000f79190620009be565b60405180910390f35b3480156200010d57600080fd5b50620001186200028d565b60405162000127919062000a95565b60405180910390f35b6200013a62000295565b005b3480156200014957600080fd5b50620001546200035c565b6040516200016391906200091d565b60405180910390f35b3480156200017957600080fd5b506200018462000386565b005b620001a460048036038101906200019e9190620006b2565b62000408565b005b6000600260009054906101000a900473ffffffffffffffffffffffffffffffffffffffff1673ffffffffffffffffffffffffffffffffffffffff16318210620001f35760009050620001f8565b600190505b919050565b606060008054806020026020016040519081016040528092919081815260200182805480156200028357602002820191906000526020600020905b8160009054906101000a900473ffffffffffffffffffffffffffffffffffffffff1673ffffffffffffffffffffffffffffffffffffffff168152602001906001019080831162000238575b5050505050905090565b600047905090565b600160009054906101000a900473ffffffffffffffffffffffffffffffffffffffff1673ffffffffffffffffffffffffffffffffffffffff163373ffffffffffffffffffffffffffffffffffffffff1614620002f057600080fd5b600160009054906101000a900473ffffffffffffffffffffffffffffffffffffffff1673ffffffffffffffffffffffffffffffffffffffff166108fc479081150290604051600060405180830381858888f1935050505015801562000359573d6000803e3d6000fd5b50565b6000600160009054906101000a900473ffffffffffffffffffffffffffffffffffffffff16905090565b600160009054906101000a900473ffffffffffffffffffffffffffffffffffffffff1673ffffffffffffffffffffffffffffffffffffffff163373ffffffffffffffffffffffffffffffffffffffff1614620003e157600080fd5b6000600260146101000a81548160ff0219169083151502179055506200040662000295565b565b600260149054906101000a900460ff166200042257600080fd5b6200042d82620001a6565b6200043757600080fd5b6000600160009054906101000a900473ffffffffffffffffffffffffffffffffffffffff1633878787878760405162000470906200061b565b6200048297969594939291906200093a565b604051809103906000f0801580156200049f573d6000803e3d6000fd5b5090506000819080600181540180825580915050600190039060005260206000200160009091909190916101000a81548173ffffffffffffffffffffffffffffffffffffffff021916908373ffffffffffffffffffffffffffffffffffffffff1602179055503373ffffffffffffffffffffffffffffffffffffffff167f63b5e55728e5ce4ba8dd03914139aafc13dead7c456c29de41022a8752db04af8787878787426040516200055796959493929190620009ff565b60405180910390a260008173ffffffffffffffffffffffffffffffffffffffff1684604051620005879062000906565b60006040518083038185875af1925050503d8060008114620005c6576040519150601f19603f3d011682016040523d82523d6000602084013e620005cb565b606091505b505090508062000612576040517f08c379a0000000000000000000000000000000000000000000000000000000008152600401620006099062000a73565b60405180910390fd5b50505050505050565b610b3b8062000c8b83390190565b6000620006406200063a8462000ae6565b62000ab2565b9050828152602081018484840111156200065957600080fd5b6200066684828562000beb565b509392505050565b600082601f8301126200068057600080fd5b81356200069284826020860162000629565b91505092915050565b600081359050620006ac8162000c70565b92915050565b600080600080600060a08688031215620006cb57600080fd5b600086013567ffffffffffffffff811115620006e657600080fd5b620006f4888289016200066e565b955050602062000707888289016200069b565b94505060406200071a888289016200069b565b93505060606200072d888289016200069b565b925050608062000740888289016200069b565b9150509295509295909350565b6000602082840312156200076057600080fd5b600062000770848285016200069b565b91505092915050565b60006200078783836200081f565b60208301905092915050565b6200079e8162000b79565b82525050565b6000620007b18262000b29565b620007bd818562000b4c565b9350620007ca8362000b19565b8060005b8381101562000801578151620007e5888262000779565b9750620007f28362000b3f565b925050600181019050620007ce565b5085935050505092915050565b620008198162000b8d565b82525050565b6200082a8162000bc3565b82525050565b60006200083d8262000b34565b62000849818562000b68565b93506200085b81856020860162000bfa565b620008668162000c5f565b840191505092915050565b60006200088060278362000b68565b91507f4661696c656420746f207769746864726177206d6f6e65792066726f6d20636f60008301527f6e74726163742e000000000000000000000000000000000000000000000000006020830152604082019050919050565b6000620008e860008362000b5d565b9150600082019050919050565b620009008162000bb9565b82525050565b60006200091382620008d9565b9150819050919050565b600060208201905062000934600083018462000793565b92915050565b600060e08201905062000951600083018a62000793565b62000960602083018962000793565b818103604083015262000974818862000830565b9050620009856060830187620008f5565b620009946080830186620008f5565b620009a360a0830185620008f5565b620009b260c0830184620008f5565b98975050505050505050565b60006020820190508181036000830152620009da8184620007a4565b905092915050565b6000602082019050620009f960008301846200080e565b92915050565b600060c082019050818103600083015262000a1b818962000830565b905062000a2c6020830188620008f5565b62000a3b6040830187620008f5565b62000a4a6060830186620008f5565b62000a596080830185620008f5565b62000a6860a0830184620008f5565b979650505050505050565b6000602082019050818103600083015262000a8e8162000871565b9050919050565b600060208201905062000aac6000830184620008f5565b92915050565b6000604051905081810181811067ffffffffffffffff8211171562000adc5762000adb62000c30565b5b8060405250919050565b600067ffffffffffffffff82111562000b045762000b0362000c30565b5b601f19601f8301169050602081019050919050565b6000819050602082019050919050565b600081519050919050565b600081519050919050565b6000602082019050919050565b600082825260208201905092915050565b600081905092915050565b600082825260208201905092915050565b600062000b868262000b99565b9050919050565b60008115159050919050565b600073ffffffffffffffffffffffffffffffffffffffff82169050919050565b6000819050919050565b600062000bd08262000bd7565b9050919050565b600062000be48262000b99565b9050919050565b82818337600083830152505050565b60005b8381101562000c1a57808201518184015260208101905062000bfd565b8381111562000c2a576000848401525b50505050565b7f4e487b7100000000000000000000000000000000000000000000000000000000600052604160045260246000fd5b6000601f19601f8301169050919050565b62000c7b8162000bb9565b811462000c8757600080fd5b5056fe60806040526000600960006101000a81548160ff0219169083151502179055503480156200002c57600080fd5b5060405162000b3b38038062000b3b83398181016040528101906200005291906200028e565b866000806101000a81548173ffffffffffffffffffffffffffffffffffffffff021916908373ffffffffffffffffffffffffffffffffffffffff16021790555085600160006101000a81548173ffffffffffffffffffffffffffffffffffffffff021916908373ffffffffffffffffffffffffffffffffffffffff1602179055508460029080519060200190620000eb9291906200013e565b5083600381905550826004819055508160058190555080600781905550816005819055506000600660006101000a81548160ff0219169083151502179055504260088190555050505050505050620004f7565b8280546200014c906200042f565b90600052602060002090601f016020900481019282620001705760008555620001bc565b82601f106200018b57805160ff1916838001178555620001bc565b82800160010185558215620001bc579182015b82811115620001bb5782518255916020019190600101906200019e565b5b509050620001cb9190620001cf565b5090565b5b80821115620001ea576000816000905550600101620001d0565b5090565b600062000205620001ff8462000388565b62000354565b9050828152602081018484840111156200021e57600080fd5b6200022b848285620003f9565b509392505050565b6000815190506200024481620004c3565b92915050565b600082601f8301126200025c57600080fd5b81516200026e848260208601620001ee565b91505092915050565b6000815190506200028881620004dd565b92915050565b600080600080600080600060e0888a031215620002aa57600080fd5b6000620002ba8a828b0162000233565b9750506020620002cd8a828b0162000233565b965050604088015167ffffffffffffffff811115620002eb57600080fd5b620002f98a828b016200024a565b95505060606200030c8a828b0162000277565b94505060806200031f8a828b0162000277565b93505060a0620003328a828b0162000277565b92505060c0620003458a828b0162000277565b91505092959891949750929550565b6000604051905081810181811067ffffffffffffffff821117156200037e576200037d62000494565b5b8060405250919050565b600067ffffffffffffffff821115620003a657620003a562000494565b5b601f19601f8301169050602081019050919050565b6000620003c882620003cf565b9050919050565b600073ffffffffffffffffffffffffffffffffffffffff82169050919050565b6000819050919050565b60005b8381101562000419578082015181840152602081019050620003fc565b8381111562000429576000848401525b50505050565b600060028204905060018216806200044857607f821691505b602082108114156200045f576200045e62000465565b5b50919050565b7f4e487b7100000000000000000000000000000000000000000000000000000000600052602260045260246000fd5b7f4e487b7100000000000000000000000000000000000000000000000000000000600052604160045260246000fd5b620004ce81620003bb565b8114620004da57600080fd5b50565b620004e881620003ef565b8114620004f457600080fd5b50565b61063480620005076000396000f3fe6080604052600436106100955760003560e01c8063c0e6976c11610059578063c0e6976c14610169578063dbc837c514610192578063e0a73a93146101bd578063eebb1363146101e8578063fddf3dd0146102135761009c565b80630363cf40146100a157806312065fe0146100bd5780631af8c5d0146100e85780633e4ed57a14610113578063b80777ea1461013e5761009c565b3661009c57005b600080fd5b6100bb60048036038101906100b691906104a6565b61023e565b005b3480156100c957600080fd5b506100d26102e4565b6040516100df919061055b565b60405180910390f35b3480156100f457600080fd5b506100fd6102ec565b60405161010a919061055b565b60405180910390f35b34801561011f57600080fd5b506101286102f2565b604051610135919061055b565b60405180910390f35b34801561014a57600080fd5b506101536102f8565b604051610160919061055b565b60405180910390f35b34801561017557600080fd5b50610190600480360381019061018b91906104cf565b6102fe565b005b34801561019e57600080fd5b506101a7610419565b6040516101b49190610525565b60405180910390f35b3480156101c957600080fd5b506101d261043d565b6040516101df919061055b565b60405180910390f35b3480156101f457600080fd5b506101fd610443565b60405161020a9190610525565b60405180910390f35b34801561021f57600080fd5b50610228610469565b6040516102359190610540565b60405180910390f35b600160009054906101000a900473ffffffffffffffffffffffffffffffffffffffff1673ffffffffffffffffffffffffffffffffffffffff163373ffffffffffffffffffffffffffffffffffffffff161461029857600080fd5b8073ffffffffffffffffffffffffffffffffffffffff166108fc6005549081150290604051600060405180830381858888f193505050501580156102e0573d6000803e3d6000fd5b5050565b600047905090565b60035481565b60075481565b60085481565b600160009054906101000a900473ffffffffffffffffffffffffffffffffffffffff1673ffffffffffffffffffffffffffffffffffffffff163373ffffffffffffffffffffffffffffffffffffffff161461035857600080fd5b600960009054906101000a900460ff161561037257600080fd5b80600660006101000a81548160ff021916908315150217905550600660009054906101000a900460ff16156103d1576103cc600160009054906101000a900473ffffffffffffffffffffffffffffffffffffffff1661023e565b6103fb565b6103fa60008054906101000a900473ffffffffffffffffffffffffffffffffffffffff1661023e565b5b6001600960006101000a81548160ff02191690831515021790555050565b60008054906101000a900473ffffffffffffffffffffffffffffffffffffffff1681565b60045481565b600160009054906101000a900473ffffffffffffffffffffffffffffffffffffffff1681565b600660009054906101000a900460ff1681565b60008135905061048b816105d0565b92915050565b6000813590506104a0816105e7565b92915050565b6000602082840312156104b857600080fd5b60006104c68482850161047c565b91505092915050565b6000602082840312156104e157600080fd5b60006104ef84828501610491565b91505092915050565b61050181610576565b82525050565b6105108161059a565b82525050565b61051f816105c6565b82525050565b600060208201905061053a60008301846104f8565b92915050565b60006020820190506105556000830184610507565b92915050565b60006020820190506105706000830184610516565b92915050565b6000610581826105a6565b9050919050565b6000610593826105a6565b9050919050565b60008115159050919050565b600073ffffffffffffffffffffffffffffffffffffffff82169050919050565b6000819050919050565b6105d981610588565b81146105e457600080fd5b50565b6105f08161059a565b81146105fb57600080fd5b5056fea264697066735822122026e737360c3f6883bd4a6f812c2f919827b52ec6d6a0de7dac60b3d59b8284a164736f6c63430008000033a2646970667358221220cc2369c412ccba106dcbd4ce0c075d62476a90b9799f24f66df8b2e9f10d934a64736f6c63430008000033",
  "linkReferences": {},
  "deployedLinkReferences": {}
}