{
  "_format": "hh-sol-artifact-1",
  "contractName": "InsuranceFactory",
  "sourceName": "contracts/InsuranceFactory.sol",
  "abi": [
    {
      "inputs": [],
      "stateMutability": "payable",
      "type": "constructor"
    },
    {
      "anonymous": false,
      "inputs": [
        {
          "indexed": true,
          "internalType": "address",
          "name": "insured",
          "type": "address"
        },
        {
          "indexed": false,
          "internalType": "string",
          "name": "airlineCompany",
          "type": "string"
        },
        {
          "indexed": false,
          "internalType": "uint256",
          "name": "flightNumber",
          "type": "uint256"
        },
        {
          "indexed": false,
          "internalType": "uint256",
          "name": "premium",
          "type": "uint256"
        },
        {
          "indexed": false,
          "internalType": "uint256",
          "name": "payout",
          "type": "uint256"
        },
        {
          "indexed": false,
          "internalType": "uint256",
          "name": "departureDate",
          "type": "uint256"
        },
        {
          "indexed": false,
          "internalType": "uint256",
          "name": "timestamp",
          "type": "uint256"
        }
      ],
      "name": "NewInsurance",
      "type": "event"
    },
    {
      "inputs": [
        {
          "internalType": "string",
          "name": "_airlineCompany",
          "type": "string"
        },
        {
          "internalType": "uint256",
          "name": "_flightNumber",
          "type": "uint256"
        },
        {
          "internalType": "uint256",
          "name": "_premium",
          "type": "uint256"
        },
        {
          "internalType": "uint256",
          "name": "_payout",
          "type": "uint256"
        },
        {
          "internalType": "uint256",
          "name": "_departureDate",
          "type": "uint256"
        }
      ],
      "name": "createInsurance",
      "outputs": [],
      "stateMutability": "payable",
      "type": "function"
    },
    {
      "inputs": [],
      "name": "endContract",
      "outputs": [],
      "stateMutability": "nonpayable",
      "type": "function"
    },
    {
      "inputs": [],
      "name": "getAllInsurances",
      "outputs": [
        {
          "components": [
            {
              "internalType": "address",
              "name": "contractAddress",
              "type": "address"
            },
            {
              "internalType": "address",
              "name": "insured",
              "type": "address"
            },
            {
              "internalType": "string",
              "name": "airlineCompany",
              "type": "string"
            },
            {
              "internalType": "uint256",
              "name": "flightNumber",
              "type": "uint256"
            },
            {
              "internalType": "uint256",
              "name": "premium",
              "type": "uint256"
            },
            {
              "internalType": "uint256",
              "name": "payout",
              "type": "uint256"
            },
            {
              "internalType": "uint256",
              "name": "departureDate",
              "type": "uint256"
            },
            {
              "internalType": "uint256",
              "name": "timestamp",
              "type": "uint256"
            }
          ],
          "internalType": "struct InsuranceFactory.InsuranceInformations[]",
          "name": "",
          "type": "tuple[]"
        }
      ],
      "stateMutability": "view",
      "type": "function"
    },
    {
      "inputs": [],
      "name": "getBalance",
      "outputs": [
        {
          "internalType": "uint256",
          "name": "",
          "type": "uint256"
        }
      ],
      "stateMutability": "view",
      "type": "function"
    },
    {
      "inputs": [],
      "name": "getProvider",
      "outputs": [
        {
          "internalType": "address",
          "name": "",
          "type": "address"
        }
      ],
      "stateMutability": "view",
      "type": "function"
    },
    {
      "inputs": [],
      "name": "getResidualEth",
      "outputs": [],
      "stateMutability": "payable",
      "type": "function"
    },
    {
      "inputs": [
        {
          "internalType": "uint256",
          "name": "_payout",
          "type": "uint256"
        }
      ],
      "name": "hasBalanceToCoverPayout",
      "outputs": [
        {
          "internalType": "bool",
          "name": "",
          "type": "bool"
        }
      ],
      "stateMutability": "view",
      "type": "function"
    },
    {
      "stateMutability": "payable",
      "type": "receive"
    }
  ],
  "bytecode": "0x6080604052336000806101000a81548173ffffffffffffffffffffffffffffffffffffffff021916908373ffffffffffffffffffffffffffffffffffffffff16021790555030600160006101000a81548173ffffffffffffffffffffffffffffffffffffffff021916908373ffffffffffffffffffffffffffffffffffffffff16021790555060018060146101000a81548160ff021916908315150217905550611e8b806100ae6000396000f3fe6080604052600436106200007f5760003560e01c8063337b5edd1162000055578063337b5edd1462000130578063483d45bd146200013c578063bb6e7de9146200016c578063d0365fbf14620001865762000087565b80630d531609146200008c57806311165ee714620000d057806312065fe014620001005762000087565b366200008757005b600080fd5b3480156200009957600080fd5b50620000b86004803603810190620000b2919062000a4e565b620001a6565b604051620000c7919062000e08565b60405180910390f35b348015620000dd57600080fd5b50620000e8620001fd565b604051620000f7919062000de4565b60405180910390f35b3480156200010d57600080fd5b5062000118620003d7565b60405162000127919062000ebb565b60405180910390f35b6200013a620003df565b005b3480156200014957600080fd5b5062000154620004a2565b60405162000163919062000d43565b60405180910390f35b3480156200017957600080fd5b5062000184620004cb565b005b620001a460048036038101906200019e9190620009b3565b6200054b565b005b6000600160009054906101000a900473ffffffffffffffffffffffffffffffffffffffff1673ffffffffffffffffffffffffffffffffffffffff16318210620001f35760009050620001f8565b600190505b919050565b60606002805480602002602001604051908101604052809291908181526020016000905b82821015620003ce5783829060005260206000209060080201604051806101000160405290816000820160009054906101000a900473ffffffffffffffffffffffffffffffffffffffff1673ffffffffffffffffffffffffffffffffffffffff1673ffffffffffffffffffffffffffffffffffffffff1681526020016001820160009054906101000a900473ffffffffffffffffffffffffffffffffffffffff1673ffffffffffffffffffffffffffffffffffffffff1673ffffffffffffffffffffffffffffffffffffffff16815260200160028201805462000304906200103f565b80601f016020809104026020016040519081016040528092919081815260200182805462000332906200103f565b8015620003835780601f10620003575761010080835404028352916020019162000383565b820191906000526020600020905b8154815290600101906020018083116200036557829003601f168201915b50505050508152602001600382015481526020016004820154815260200160058201548152602001600682015481526020016007820154815250508152602001906001019062000221565b50505050905090565b600047905090565b60008054906101000a900473ffffffffffffffffffffffffffffffffffffffff1673ffffffffffffffffffffffffffffffffffffffff163373ffffffffffffffffffffffffffffffffffffffff16146200043857600080fd5b60008054906101000a900473ffffffffffffffffffffffffffffffffffffffff1673ffffffffffffffffffffffffffffffffffffffff166108fc479081150290604051600060405180830381858888f193505050501580156200049f573d6000803e3d6000fd5b50565b60008060009054906101000a900473ffffffffffffffffffffffffffffffffffffffff16905090565b60008054906101000a900473ffffffffffffffffffffffffffffffffffffffff1673ffffffffffffffffffffffffffffffffffffffff163373ffffffffffffffffffffffffffffffffffffffff16146200052457600080fd5b6000600160146101000a81548160ff02191690831515021790555062000549620003df565b565b600160149054906101000a900460ff166200056557600080fd5b6200057082620001a6565b6200057a57600080fd5b60008060009054906101000a900473ffffffffffffffffffffffffffffffffffffffff16338787878787604051620005b2906200086c565b620005c4979695949392919062000d60565b604051809103906000f080158015620005e1573d6000803e3d6000fd5b50905060026040518061010001604052808373ffffffffffffffffffffffffffffffffffffffff1681526020013373ffffffffffffffffffffffffffffffffffffffff16815260200188815260200187815260200186815260200185815260200184815260200142815250908060018154018082558091505060019003906000526020600020906008020160009091909190915060008201518160000160006101000a81548173ffffffffffffffffffffffffffffffffffffffff021916908373ffffffffffffffffffffffffffffffffffffffff16021790555060208201518160010160006101000a81548173ffffffffffffffffffffffffffffffffffffffff021916908373ffffffffffffffffffffffffffffffffffffffff1602179055506040820151816002019080519060200190620007219291906200087a565b50606082015181600301556080820151816004015560a0820151816005015560c0820151816006015560e0820151816007015550503373ffffffffffffffffffffffffffffffffffffffff167f63b5e55728e5ce4ba8dd03914139aafc13dead7c456c29de41022a8752db04af878787878742604051620007a89695949392919062000e25565b60405180910390a260008173ffffffffffffffffffffffffffffffffffffffff1684604051620007d89062000d2c565b60006040518083038185875af1925050503d806000811462000817576040519150601f19603f3d011682016040523d82523d6000602084013e6200081c565b606091505b505090508062000863576040517f08c379a00000000000000000000000000000000000000000000000000000000081526004016200085a9062000e99565b60405180910390fd5b50505050505050565b610d5780620010ff83390190565b82805462000888906200103f565b90600052602060002090601f016020900481019282620008ac5760008555620008f8565b82601f10620008c757805160ff1916838001178555620008f8565b82800160010185558215620008f8579182015b82811115620008f7578251825591602001919060010190620008da565b5b5090506200090791906200090b565b5090565b5b80821115620009265760008160009055506001016200090c565b5090565b6000620009416200093b8462000f0c565b62000ed8565b9050828152602081018484840111156200095a57600080fd5b6200096784828562000ffa565b509392505050565b600082601f8301126200098157600080fd5b8135620009938482602086016200092a565b91505092915050565b600081359050620009ad81620010e4565b92915050565b600080600080600060a08688031215620009cc57600080fd5b600086013567ffffffffffffffff811115620009e757600080fd5b620009f5888289016200096f565b955050602062000a08888289016200099c565b945050604062000a1b888289016200099c565b935050606062000a2e888289016200099c565b925050608062000a41888289016200099c565b9150509295509295909350565b60006020828403121562000a6157600080fd5b600062000a71848285016200099c565b91505092915050565b600062000a88838362000c4a565b905092915050565b62000a9b8162000fb0565b82525050565b62000aac8162000fb0565b82525050565b600062000abf8262000f4f565b62000acb818562000f72565b93508360208202850162000adf8562000f3f565b8060005b8581101562000b21578484038952815162000aff858262000a7a565b945062000b0c8362000f65565b925060208a0199505060018101905062000ae3565b50829750879550505050505092915050565b62000b3e8162000fc4565b82525050565b600062000b518262000f5a565b62000b5d818562000f8e565b935062000b6f81856020860162001009565b62000b7a81620010d3565b840191505092915050565b600062000b928262000f5a565b62000b9e818562000f9f565b935062000bb081856020860162001009565b62000bbb81620010d3565b840191505092915050565b600062000bd560278362000f9f565b91507f4661696c656420746f207769746864726177206d6f6e65792066726f6d20636f60008301527f6e74726163742e000000000000000000000000000000000000000000000000006020830152604082019050919050565b600062000c3d60008362000f83565b9150600082019050919050565b60006101008301600083015162000c65600086018262000a90565b50602083015162000c7a602086018262000a90565b506040830151848203604086015262000c94828262000b44565b915050606083015162000cab606086018262000d0a565b50608083015162000cc0608086018262000d0a565b5060a083015162000cd560a086018262000d0a565b5060c083015162000cea60c086018262000d0a565b5060e083015162000cff60e086018262000d0a565b508091505092915050565b62000d158162000ff0565b82525050565b62000d268162000ff0565b82525050565b600062000d398262000c2e565b9150819050919050565b600060208201905062000d5a600083018462000aa1565b92915050565b600060e08201905062000d77600083018a62000aa1565b62000d86602083018962000aa1565b818103604083015262000d9a818862000b85565b905062000dab606083018762000d1b565b62000dba608083018662000d1b565b62000dc960a083018562000d1b565b62000dd860c083018462000d1b565b98975050505050505050565b6000602082019050818103600083015262000e00818462000ab2565b905092915050565b600060208201905062000e1f600083018462000b33565b92915050565b600060c082019050818103600083015262000e41818962000b85565b905062000e52602083018862000d1b565b62000e61604083018762000d1b565b62000e70606083018662000d1b565b62000e7f608083018562000d1b565b62000e8e60a083018462000d1b565b979650505050505050565b6000602082019050818103600083015262000eb48162000bc6565b9050919050565b600060208201905062000ed2600083018462000d1b565b92915050565b6000604051905081810181811067ffffffffffffffff8211171562000f025762000f01620010a4565b5b8060405250919050565b600067ffffffffffffffff82111562000f2a5762000f29620010a4565b5b601f19601f8301169050602081019050919050565b6000819050602082019050919050565b600081519050919050565b600081519050919050565b6000602082019050919050565b600082825260208201905092915050565b600081905092915050565b600082825260208201905092915050565b600082825260208201905092915050565b600062000fbd8262000fd0565b9050919050565b60008115159050919050565b600073ffffffffffffffffffffffffffffffffffffffff82169050919050565b6000819050919050565b82818337600083830152505050565b60005b83811015620010295780820151818401526020810190506200100c565b8381111562001039576000848401525b50505050565b600060028204905060018216806200105857607f821691505b602082108114156200106f576200106e62001075565b5b50919050565b7f4e487b7100000000000000000000000000000000000000000000000000000000600052602260045260246000fd5b7f4e487b7100000000000000000000000000000000000000000000000000000000600052604160045260246000fd5b6000601f19601f8301169050919050565b620010ef8162000ff0565b8114620010fb57600080fd5b5056fe60806040526000600960006101000a81548160ff0219169083151502179055503480156200002c57600080fd5b5060405162000d5738038062000d5783398181016040528101906200005291906200028e565b866000806101000a81548173ffffffffffffffffffffffffffffffffffffffff021916908373ffffffffffffffffffffffffffffffffffffffff16021790555085600160006101000a81548173ffffffffffffffffffffffffffffffffffffffff021916908373ffffffffffffffffffffffffffffffffffffffff1602179055508460029080519060200190620000eb9291906200013e565b5083600381905550826004819055508160058190555080600781905550816005819055506000600660006101000a81548160ff0219169083151502179055504260088190555050505050505050620004f7565b8280546200014c906200042f565b90600052602060002090601f016020900481019282620001705760008555620001bc565b82601f106200018b57805160ff1916838001178555620001bc565b82800160010185558215620001bc579182015b82811115620001bb5782518255916020019190600101906200019e565b5b509050620001cb9190620001cf565b5090565b5b80821115620001ea576000816000905550600101620001d0565b5090565b600062000205620001ff8462000388565b62000354565b9050828152602081018484840111156200021e57600080fd5b6200022b848285620003f9565b509392505050565b6000815190506200024481620004c3565b92915050565b600082601f8301126200025c57600080fd5b81516200026e848260208601620001ee565b91505092915050565b6000815190506200028881620004dd565b92915050565b600080600080600080600060e0888a031215620002aa57600080fd5b6000620002ba8a828b0162000233565b9750506020620002cd8a828b0162000233565b965050604088015167ffffffffffffffff811115620002eb57600080fd5b620002f98a828b016200024a565b95505060606200030c8a828b0162000277565b94505060806200031f8a828b0162000277565b93505060a0620003328a828b0162000277565b92505060c0620003458a828b0162000277565b91505092959891949750929550565b6000604051905081810181811067ffffffffffffffff821117156200037e576200037d62000494565b5b8060405250919050565b600067ffffffffffffffff821115620003a657620003a562000494565b5b601f19601f8301169050602081019050919050565b6000620003c882620003cf565b9050919050565b600073ffffffffffffffffffffffffffffffffffffffff82169050919050565b6000819050919050565b60005b8381101562000419578082015181840152602081019050620003fc565b8381111562000429576000848401525b50505050565b600060028204905060018216806200044857607f821691505b602082108114156200045f576200045e62000465565b5b50919050565b7f4e487b7100000000000000000000000000000000000000000000000000000000600052602260045260246000fd5b7f4e487b7100000000000000000000000000000000000000000000000000000000600052604160045260246000fd5b620004ce81620003bb565b8114620004da57600080fd5b50565b620004e881620003ef565b8114620004f457600080fd5b50565b61085080620005076000396000f3fe6080604052600436106100ab5760003560e01c8063b80777ea11610064578063b80777ea146101aa578063c0e6976c146101d5578063dbc837c5146101fe578063e0a73a9314610229578063eebb136314610254578063fddf3dd01461027f576100b2565b80630363cf40146100b757806312065fe0146100d35780631af8c5d0146100fe5780633e4ed57a1461012957806363bd1d4a146101545780636a55aefb1461017f576100b2565b366100b257005b600080fd5b6100d160048036038101906100cc91906105a6565b6102aa565b005b3480156100df57600080fd5b506100e8610350565b6040516100f591906106b6565b60405180910390f35b34801561010a57600080fd5b50610113610358565b60405161012091906106b6565b60405180910390f35b34801561013557600080fd5b5061013e61035e565b60405161014b91906106b6565b60405180910390f35b34801561016057600080fd5b50610169610364565b60405161017691906106b6565b60405180910390f35b34801561018b57600080fd5b5061019461036a565b6040516101a19190610694565b60405180910390f35b3480156101b657600080fd5b506101bf6103f8565b6040516101cc91906106b6565b60405180910390f35b3480156101e157600080fd5b506101fc60048036038101906101f791906105cf565b6103fe565b005b34801561020a57600080fd5b50610213610519565b604051610220919061065e565b60405180910390f35b34801561023557600080fd5b5061023e61053d565b60405161024b91906106b6565b60405180910390f35b34801561026057600080fd5b50610269610543565b604051610276919061065e565b60405180910390f35b34801561028b57600080fd5b50610294610569565b6040516102a19190610679565b60405180910390f35b600160009054906101000a900473ffffffffffffffffffffffffffffffffffffffff1673ffffffffffffffffffffffffffffffffffffffff163373ffffffffffffffffffffffffffffffffffffffff161461030457600080fd5b8073ffffffffffffffffffffffffffffffffffffffff166108fc6005549081150290604051600060405180830381858888f1935050505015801561034c573d6000803e3d6000fd5b5050565b600047905090565b60035481565b60075481565b60055481565b600280546103779061077a565b80601f01602080910402602001604051908101604052809291908181526020018280546103a39061077a565b80156103f05780601f106103c5576101008083540402835291602001916103f0565b820191906000526020600020905b8154815290600101906020018083116103d357829003601f168201915b505050505081565b60085481565b600160009054906101000a900473ffffffffffffffffffffffffffffffffffffffff1673ffffffffffffffffffffffffffffffffffffffff163373ffffffffffffffffffffffffffffffffffffffff161461045857600080fd5b600960009054906101000a900460ff161561047257600080fd5b80600660006101000a81548160ff021916908315150217905550600660009054906101000a900460ff16156104d1576104cc600160009054906101000a900473ffffffffffffffffffffffffffffffffffffffff166102aa565b6104fb565b6104fa60008054906101000a900473ffffffffffffffffffffffffffffffffffffffff166102aa565b5b6001600960006101000a81548160ff02191690831515021790555050565b60008054906101000a900473ffffffffffffffffffffffffffffffffffffffff1681565b60045481565b600160009054906101000a900473ffffffffffffffffffffffffffffffffffffffff1681565b600660009054906101000a900460ff1681565b60008135905061058b816107ec565b92915050565b6000813590506105a081610803565b92915050565b6000602082840312156105b857600080fd5b60006105c68482850161057c565b91505092915050565b6000602082840312156105e157600080fd5b60006105ef84828501610591565b91505092915050565b610601816106ed565b82525050565b61061081610711565b82525050565b6000610621826106d1565b61062b81856106dc565b935061063b818560208601610747565b610644816107db565b840191505092915050565b6106588161073d565b82525050565b600060208201905061067360008301846105f8565b92915050565b600060208201905061068e6000830184610607565b92915050565b600060208201905081810360008301526106ae8184610616565b905092915050565b60006020820190506106cb600083018461064f565b92915050565b600081519050919050565b600082825260208201905092915050565b60006106f88261071d565b9050919050565b600061070a8261071d565b9050919050565b60008115159050919050565b600073ffffffffffffffffffffffffffffffffffffffff82169050919050565b6000819050919050565b60005b8381101561076557808201518184015260208101905061074a565b83811115610774576000848401525b50505050565b6000600282049050600182168061079257607f821691505b602082108114156107a6576107a56107ac565b5b50919050565b7f4e487b7100000000000000000000000000000000000000000000000000000000600052602260045260246000fd5b6000601f19601f8301169050919050565b6107f5816106ff565b811461080057600080fd5b50565b61080c81610711565b811461081757600080fd5b5056fea26469706673582212201ea02a50d4c37fac50042d4892e3f2e3b5b4b218790c37b40ff048c22c36066d64736f6c63430008000033a26469706673582212202d50218b8f3d0e57a1aa982f9898d582c1ba7734176678315b41b9d19e30ff2464736f6c63430008000033",
  "linkReferences": {},
  "deployedLinkReferences": {}
}