{
  "_format": "hh-sol-artifact-1",
  "contractName": "Insurance",
  "sourceName": "contracts/InsuranceFactory.sol",
  "abi": [
    {
      "inputs": [
        {
          "internalType": "address",
          "name": "_insurer",
          "type": "address"
        },
        {
          "internalType": "address",
          "name": "_insured",
          "type": "address"
        },
        {
          "internalType": "string",
          "name": "_airlineCompany",
          "type": "string"
        },
        {
          "internalType": "uint256",
          "name": "_flightNumber",
          "type": "uint256"
        },
        {
          "internalType": "uint256",
          "name": "_premium",
          "type": "uint256"
        },
        {
          "internalType": "uint256",
          "name": "_payout",
          "type": "uint256"
        },
        {
          "internalType": "uint256",
          "name": "_departureDate",
          "type": "uint256"
        }
      ],
      "stateMutability": "nonpayable",
      "type": "constructor"
    },
    {
      "inputs": [],
      "name": "airlineCompany",
      "outputs": [
        {
          "internalType": "string",
          "name": "",
          "type": "string"
        }
      ],
      "stateMutability": "view",
      "type": "function"
    },
    {
      "inputs": [
        {
          "internalType": "bool",
          "name": "_oracleInformation",
          "type": "bool"
        }
      ],
      "name": "callOracle",
      "outputs": [],
      "stateMutability": "nonpayable",
      "type": "function"
    },
    {
      "inputs": [],
      "name": "departureDate",
      "outputs": [
        {
          "internalType": "uint256",
          "name": "",
          "type": "uint256"
        }
      ],
      "stateMutability": "view",
      "type": "function"
    },
    {
      "inputs": [],
      "name": "flightNumber",
      "outputs": [
        {
          "internalType": "uint256",
          "name": "",
          "type": "uint256"
        }
      ],
      "stateMutability": "view",
      "type": "function"
    },
    {
      "inputs": [],
      "name": "getBalance",
      "outputs": [
        {
          "internalType": "uint256",
          "name": "",
          "type": "uint256"
        }
      ],
      "stateMutability": "view",
      "type": "function"
    },
    {
      "inputs": [],
      "name": "insured",
      "outputs": [
        {
          "internalType": "address",
          "name": "",
          "type": "address"
        }
      ],
      "stateMutability": "view",
      "type": "function"
    },
    {
      "inputs": [],
      "name": "insurer",
      "outputs": [
        {
          "internalType": "address",
          "name": "",
          "type": "address"
        }
      ],
      "stateMutability": "view",
      "type": "function"
    },
    {
      "inputs": [],
      "name": "isFlightDelayed",
      "outputs": [
        {
          "internalType": "bool",
          "name": "",
          "type": "bool"
        }
      ],
      "stateMutability": "view",
      "type": "function"
    },
    {
      "inputs": [],
      "name": "payout",
      "outputs": [
        {
          "internalType": "uint256",
          "name": "",
          "type": "uint256"
        }
      ],
      "stateMutability": "view",
      "type": "function"
    },
    {
      "inputs": [],
      "name": "premium",
      "outputs": [
        {
          "internalType": "uint256",
          "name": "",
          "type": "uint256"
        }
      ],
      "stateMutability": "view",
      "type": "function"
    },
    {
      "inputs": [],
      "name": "timestamp",
      "outputs": [
        {
          "internalType": "uint256",
          "name": "",
          "type": "uint256"
        }
      ],
      "stateMutability": "view",
      "type": "function"
    },
    {
      "inputs": [
        {
          "internalType": "address payable",
          "name": "recipient",
          "type": "address"
        }
      ],
      "name": "transferPayout",
      "outputs": [],
      "stateMutability": "payable",
      "type": "function"
    },
    {
      "stateMutability": "payable",
      "type": "receive"
    }
  ],
  "bytecode": "0x60806040526000600960006101000a81548160ff0219169083151502179055503480156200002c57600080fd5b5060405162000d5738038062000d5783398181016040528101906200005291906200028e565b866000806101000a81548173ffffffffffffffffffffffffffffffffffffffff021916908373ffffffffffffffffffffffffffffffffffffffff16021790555085600160006101000a81548173ffffffffffffffffffffffffffffffffffffffff021916908373ffffffffffffffffffffffffffffffffffffffff1602179055508460029080519060200190620000eb9291906200013e565b5083600381905550826004819055508160058190555080600781905550816005819055506000600660006101000a81548160ff0219169083151502179055504260088190555050505050505050620004f7565b8280546200014c906200042f565b90600052602060002090601f016020900481019282620001705760008555620001bc565b82601f106200018b57805160ff1916838001178555620001bc565b82800160010185558215620001bc579182015b82811115620001bb5782518255916020019190600101906200019e565b5b509050620001cb9190620001cf565b5090565b5b80821115620001ea576000816000905550600101620001d0565b5090565b600062000205620001ff8462000388565b62000354565b9050828152602081018484840111156200021e57600080fd5b6200022b848285620003f9565b509392505050565b6000815190506200024481620004c3565b92915050565b600082601f8301126200025c57600080fd5b81516200026e848260208601620001ee565b91505092915050565b6000815190506200028881620004dd565b92915050565b600080600080600080600060e0888a031215620002aa57600080fd5b6000620002ba8a828b0162000233565b9750506020620002cd8a828b0162000233565b965050604088015167ffffffffffffffff811115620002eb57600080fd5b620002f98a828b016200024a565b95505060606200030c8a828b0162000277565b94505060806200031f8a828b0162000277565b93505060a0620003328a828b0162000277565b92505060c0620003458a828b0162000277565b91505092959891949750929550565b6000604051905081810181811067ffffffffffffffff821117156200037e576200037d62000494565b5b8060405250919050565b600067ffffffffffffffff821115620003a657620003a562000494565b5b601f19601f8301169050602081019050919050565b6000620003c882620003cf565b9050919050565b600073ffffffffffffffffffffffffffffffffffffffff82169050919050565b6000819050919050565b60005b8381101562000419578082015181840152602081019050620003fc565b8381111562000429576000848401525b50505050565b600060028204905060018216806200044857607f821691505b602082108114156200045f576200045e62000465565b5b50919050565b7f4e487b7100000000000000000000000000000000000000000000000000000000600052602260045260246000fd5b7f4e487b7100000000000000000000000000000000000000000000000000000000600052604160045260246000fd5b620004ce81620003bb565b8114620004da57600080fd5b50565b620004e881620003ef565b8114620004f457600080fd5b50565b61085080620005076000396000f3fe6080604052600436106100ab5760003560e01c8063b80777ea11610064578063b80777ea146101aa578063c0e6976c146101d5578063dbc837c5146101fe578063e0a73a9314610229578063eebb136314610254578063fddf3dd01461027f576100b2565b80630363cf40146100b757806312065fe0146100d35780631af8c5d0146100fe5780633e4ed57a1461012957806363bd1d4a146101545780636a55aefb1461017f576100b2565b366100b257005b600080fd5b6100d160048036038101906100cc91906105a6565b6102aa565b005b3480156100df57600080fd5b506100e8610350565b6040516100f591906106b6565b60405180910390f35b34801561010a57600080fd5b50610113610358565b60405161012091906106b6565b60405180910390f35b34801561013557600080fd5b5061013e61035e565b60405161014b91906106b6565b60405180910390f35b34801561016057600080fd5b50610169610364565b60405161017691906106b6565b60405180910390f35b34801561018b57600080fd5b5061019461036a565b6040516101a19190610694565b60405180910390f35b3480156101b657600080fd5b506101bf6103f8565b6040516101cc91906106b6565b60405180910390f35b3480156101e157600080fd5b506101fc60048036038101906101f791906105cf565b6103fe565b005b34801561020a57600080fd5b50610213610519565b604051610220919061065e565b60405180910390f35b34801561023557600080fd5b5061023e61053d565b60405161024b91906106b6565b60405180910390f35b34801561026057600080fd5b50610269610543565b604051610276919061065e565b60405180910390f35b34801561028b57600080fd5b50610294610569565b6040516102a19190610679565b60405180910390f35b600160009054906101000a900473ffffffffffffffffffffffffffffffffffffffff1673ffffffffffffffffffffffffffffffffffffffff163373ffffffffffffffffffffffffffffffffffffffff161461030457600080fd5b8073ffffffffffffffffffffffffffffffffffffffff166108fc6005549081150290604051600060405180830381858888f1935050505015801561034c573d6000803e3d6000fd5b5050565b600047905090565b60035481565b60075481565b60055481565b600280546103779061077a565b80601f01602080910402602001604051908101604052809291908181526020018280546103a39061077a565b80156103f05780601f106103c5576101008083540402835291602001916103f0565b820191906000526020600020905b8154815290600101906020018083116103d357829003601f168201915b505050505081565b60085481565b600160009054906101000a900473ffffffffffffffffffffffffffffffffffffffff1673ffffffffffffffffffffffffffffffffffffffff163373ffffffffffffffffffffffffffffffffffffffff161461045857600080fd5b600960009054906101000a900460ff161561047257600080fd5b80600660006101000a81548160ff021916908315150217905550600660009054906101000a900460ff16156104d1576104cc600160009054906101000a900473ffffffffffffffffffffffffffffffffffffffff166102aa565b6104fb565b6104fa60008054906101000a900473ffffffffffffffffffffffffffffffffffffffff166102aa565b5b6001600960006101000a81548160ff02191690831515021790555050565b60008054906101000a900473ffffffffffffffffffffffffffffffffffffffff1681565b60045481565b600160009054906101000a900473ffffffffffffffffffffffffffffffffffffffff1681565b600660009054906101000a900460ff1681565b60008135905061058b816107ec565b92915050565b6000813590506105a081610803565b92915050565b6000602082840312156105b857600080fd5b60006105c68482850161057c565b91505092915050565b6000602082840312156105e157600080fd5b60006105ef84828501610591565b91505092915050565b610601816106ed565b82525050565b61061081610711565b82525050565b6000610621826106d1565b61062b81856106dc565b935061063b818560208601610747565b610644816107db565b840191505092915050565b6106588161073d565b82525050565b600060208201905061067360008301846105f8565b92915050565b600060208201905061068e6000830184610607565b92915050565b600060208201905081810360008301526106ae8184610616565b905092915050565b60006020820190506106cb600083018461064f565b92915050565b600081519050919050565b600082825260208201905092915050565b60006106f88261071d565b9050919050565b600061070a8261071d565b9050919050565b60008115159050919050565b600073ffffffffffffffffffffffffffffffffffffffff82169050919050565b6000819050919050565b60005b8381101561076557808201518184015260208101905061074a565b83811115610774576000848401525b50505050565b6000600282049050600182168061079257607f821691505b602082108114156107a6576107a56107ac565b5b50919050565b7f4e487b7100000000000000000000000000000000000000000000000000000000600052602260045260246000fd5b6000601f19601f8301169050919050565b6107f5816106ff565b811461080057600080fd5b50565b61080c81610711565b811461081757600080fd5b5056fea26469706673582212201ea02a50d4c37fac50042d4892e3f2e3b5b4b218790c37b40ff048c22c36066d64736f6c63430008000033",
  "linkReferences": {},
  "deployedLinkReferences": {}
}