{
  "_format": "hh-sol-artifact-1",
  "contractName": "Insurance",
  "sourceName": "contracts/InsuranceFactory.sol",
  "abi": [
    {
      "inputs": [
        {
          "internalType": "address",
          "name": "_insurer",
          "type": "address"
        },
        {
          "internalType": "address",
          "name": "_insured",
          "type": "address"
        },
        {
          "internalType": "string",
          "name": "_airlineCompany",
          "type": "string"
        },
        {
          "internalType": "uint256",
          "name": "_flightNumber",
          "type": "uint256"
        },
        {
          "internalType": "uint256",
          "name": "_premium",
          "type": "uint256"
        },
        {
          "internalType": "uint256",
          "name": "_payout",
          "type": "uint256"
        },
        {
          "internalType": "uint256",
          "name": "_departureDate",
          "type": "uint256"
        }
      ],
      "stateMutability": "nonpayable",
      "type": "constructor"
    },
    {
      "inputs": [
        {
          "internalType": "bool",
          "name": "_oracleInformation",
          "type": "bool"
        }
      ],
      "name": "callOracle",
      "outputs": [],
      "stateMutability": "nonpayable",
      "type": "function"
    },
    {
      "inputs": [],
      "name": "departureDate",
      "outputs": [
        {
          "internalType": "uint256",
          "name": "",
          "type": "uint256"
        }
      ],
      "stateMutability": "view",
      "type": "function"
    },
    {
      "inputs": [],
      "name": "flightNumber",
      "outputs": [
        {
          "internalType": "uint256",
          "name": "",
          "type": "uint256"
        }
      ],
      "stateMutability": "view",
      "type": "function"
    },
    {
      "inputs": [],
      "name": "getBalance",
      "outputs": [
        {
          "internalType": "uint256",
          "name": "",
          "type": "uint256"
        }
      ],
      "stateMutability": "view",
      "type": "function"
    },
    {
      "inputs": [],
      "name": "insured",
      "outputs": [
        {
          "internalType": "address",
          "name": "",
          "type": "address"
        }
      ],
      "stateMutability": "view",
      "type": "function"
    },
    {
      "inputs": [],
      "name": "insurer",
      "outputs": [
        {
          "internalType": "address",
          "name": "",
          "type": "address"
        }
      ],
      "stateMutability": "view",
      "type": "function"
    },
    {
      "inputs": [],
      "name": "isFlightDelayed",
      "outputs": [
        {
          "internalType": "bool",
          "name": "",
          "type": "bool"
        }
      ],
      "stateMutability": "view",
      "type": "function"
    },
    {
      "inputs": [],
      "name": "premium",
      "outputs": [
        {
          "internalType": "uint256",
          "name": "",
          "type": "uint256"
        }
      ],
      "stateMutability": "view",
      "type": "function"
    },
    {
      "inputs": [],
      "name": "timestamp",
      "outputs": [
        {
          "internalType": "uint256",
          "name": "",
          "type": "uint256"
        }
      ],
      "stateMutability": "view",
      "type": "function"
    },
    {
      "inputs": [
        {
          "internalType": "address payable",
          "name": "recipient",
          "type": "address"
        }
      ],
      "name": "transferPayout",
      "outputs": [],
      "stateMutability": "payable",
      "type": "function"
    },
    {
      "stateMutability": "payable",
      "type": "receive"
    }
  ],
  "bytecode": "0x60806040526000600960006101000a81548160ff0219169083151502179055503480156200002c57600080fd5b5060405162000b3b38038062000b3b83398181016040528101906200005291906200028e565b866000806101000a81548173ffffffffffffffffffffffffffffffffffffffff021916908373ffffffffffffffffffffffffffffffffffffffff16021790555085600160006101000a81548173ffffffffffffffffffffffffffffffffffffffff021916908373ffffffffffffffffffffffffffffffffffffffff1602179055508460029080519060200190620000eb9291906200013e565b5083600381905550826004819055508160058190555080600781905550816005819055506000600660006101000a81548160ff0219169083151502179055504260088190555050505050505050620004f7565b8280546200014c906200042f565b90600052602060002090601f016020900481019282620001705760008555620001bc565b82601f106200018b57805160ff1916838001178555620001bc565b82800160010185558215620001bc579182015b82811115620001bb5782518255916020019190600101906200019e565b5b509050620001cb9190620001cf565b5090565b5b80821115620001ea576000816000905550600101620001d0565b5090565b600062000205620001ff8462000388565b62000354565b9050828152602081018484840111156200021e57600080fd5b6200022b848285620003f9565b509392505050565b6000815190506200024481620004c3565b92915050565b600082601f8301126200025c57600080fd5b81516200026e848260208601620001ee565b91505092915050565b6000815190506200028881620004dd565b92915050565b600080600080600080600060e0888a031215620002aa57600080fd5b6000620002ba8a828b0162000233565b9750506020620002cd8a828b0162000233565b965050604088015167ffffffffffffffff811115620002eb57600080fd5b620002f98a828b016200024a565b95505060606200030c8a828b0162000277565b94505060806200031f8a828b0162000277565b93505060a0620003328a828b0162000277565b92505060c0620003458a828b0162000277565b91505092959891949750929550565b6000604051905081810181811067ffffffffffffffff821117156200037e576200037d62000494565b5b8060405250919050565b600067ffffffffffffffff821115620003a657620003a562000494565b5b601f19601f8301169050602081019050919050565b6000620003c882620003cf565b9050919050565b600073ffffffffffffffffffffffffffffffffffffffff82169050919050565b6000819050919050565b60005b8381101562000419578082015181840152602081019050620003fc565b8381111562000429576000848401525b50505050565b600060028204905060018216806200044857607f821691505b602082108114156200045f576200045e62000465565b5b50919050565b7f4e487b7100000000000000000000000000000000000000000000000000000000600052602260045260246000fd5b7f4e487b7100000000000000000000000000000000000000000000000000000000600052604160045260246000fd5b620004ce81620003bb565b8114620004da57600080fd5b50565b620004e881620003ef565b8114620004f457600080fd5b50565b61063480620005076000396000f3fe6080604052600436106100955760003560e01c8063c0e6976c11610059578063c0e6976c14610169578063dbc837c514610192578063e0a73a93146101bd578063eebb1363146101e8578063fddf3dd0146102135761009c565b80630363cf40146100a157806312065fe0146100bd5780631af8c5d0146100e85780633e4ed57a14610113578063b80777ea1461013e5761009c565b3661009c57005b600080fd5b6100bb60048036038101906100b691906104a6565b61023e565b005b3480156100c957600080fd5b506100d26102e4565b6040516100df919061055b565b60405180910390f35b3480156100f457600080fd5b506100fd6102ec565b60405161010a919061055b565b60405180910390f35b34801561011f57600080fd5b506101286102f2565b604051610135919061055b565b60405180910390f35b34801561014a57600080fd5b506101536102f8565b604051610160919061055b565b60405180910390f35b34801561017557600080fd5b50610190600480360381019061018b91906104cf565b6102fe565b005b34801561019e57600080fd5b506101a7610419565b6040516101b49190610525565b60405180910390f35b3480156101c957600080fd5b506101d261043d565b6040516101df919061055b565b60405180910390f35b3480156101f457600080fd5b506101fd610443565b60405161020a9190610525565b60405180910390f35b34801561021f57600080fd5b50610228610469565b6040516102359190610540565b60405180910390f35b600160009054906101000a900473ffffffffffffffffffffffffffffffffffffffff1673ffffffffffffffffffffffffffffffffffffffff163373ffffffffffffffffffffffffffffffffffffffff161461029857600080fd5b8073ffffffffffffffffffffffffffffffffffffffff166108fc6005549081150290604051600060405180830381858888f193505050501580156102e0573d6000803e3d6000fd5b5050565b600047905090565b60035481565b60075481565b60085481565b600160009054906101000a900473ffffffffffffffffffffffffffffffffffffffff1673ffffffffffffffffffffffffffffffffffffffff163373ffffffffffffffffffffffffffffffffffffffff161461035857600080fd5b600960009054906101000a900460ff161561037257600080fd5b80600660006101000a81548160ff021916908315150217905550600660009054906101000a900460ff16156103d1576103cc600160009054906101000a900473ffffffffffffffffffffffffffffffffffffffff1661023e565b6103fb565b6103fa60008054906101000a900473ffffffffffffffffffffffffffffffffffffffff1661023e565b5b6001600960006101000a81548160ff02191690831515021790555050565b60008054906101000a900473ffffffffffffffffffffffffffffffffffffffff1681565b60045481565b600160009054906101000a900473ffffffffffffffffffffffffffffffffffffffff1681565b600660009054906101000a900460ff1681565b60008135905061048b816105d0565b92915050565b6000813590506104a0816105e7565b92915050565b6000602082840312156104b857600080fd5b60006104c68482850161047c565b91505092915050565b6000602082840312156104e157600080fd5b60006104ef84828501610491565b91505092915050565b61050181610576565b82525050565b6105108161059a565b82525050565b61051f816105c6565b82525050565b600060208201905061053a60008301846104f8565b92915050565b60006020820190506105556000830184610507565b92915050565b60006020820190506105706000830184610516565b92915050565b6000610581826105a6565b9050919050565b6000610593826105a6565b9050919050565b60008115159050919050565b600073ffffffffffffffffffffffffffffffffffffffff82169050919050565b6000819050919050565b6105d981610588565b81146105e457600080fd5b50565b6105f08161059a565b81146105fb57600080fd5b5056fea26469706673582212203df77dbb1cad23ecb1a9bf19cb234d7a2478c2947a4e57a59e9b9cf6525bdf4264736f6c63430008000033",
  "linkReferences": {},
  "deployedLinkReferences": {}
}