{
  "_format": "hh-sol-artifact-1",
  "contractName": "InsuranceProvider",
  "sourceName": "contracts/InsuranceProvider.sol",
  "abi": [
    {
      "inputs": [],
      "stateMutability": "nonpayable",
      "type": "constructor"
    },
    {
      "anonymous": false,
      "inputs": [
        {
          "indexed": true,
          "internalType": "address",
          "name": "from",
          "type": "address"
        },
        {
          "indexed": false,
          "internalType": "uint256",
          "name": "timestamp",
          "type": "uint256"
        },
        {
          "indexed": false,
          "internalType": "string",
          "name": "message",
          "type": "string"
        },
        {
          "indexed": false,
          "internalType": "uint256",
          "name": "flightNumber",
          "type": "uint256"
        },
        {
          "indexed": false,
          "internalType": "uint256",
          "name": "premium",
          "type": "uint256"
        },
        {
          "indexed": false,
          "internalType": "uint256",
          "name": "payout",
          "type": "uint256"
        },
        {
          "indexed": false,
          "internalType": "uint256",
          "name": "departureDate",
          "type": "uint256"
        },
        {
          "indexed": false,
          "internalType": "bool",
          "name": "isFlightDelayed",
          "type": "bool"
        }
      ],
      "name": "NewInsurance",
      "type": "event"
    },
    {
      "inputs": [],
      "name": "getAllInsurances",
      "outputs": [
        {
          "components": [
            {
              "internalType": "address",
              "name": "insured",
              "type": "address"
            },
            {
              "internalType": "string",
              "name": "airlineCompany",
              "type": "string"
            },
            {
              "internalType": "uint256",
              "name": "flightNumber",
              "type": "uint256"
            },
            {
              "internalType": "uint256",
              "name": "premium",
              "type": "uint256"
            },
            {
              "internalType": "uint256",
              "name": "payout",
              "type": "uint256"
            },
            {
              "internalType": "uint256",
              "name": "departureDate",
              "type": "uint256"
            },
            {
              "internalType": "bool",
              "name": "isFlightDelayed",
              "type": "bool"
            },
            {
              "internalType": "uint256",
              "name": "timestamp",
              "type": "uint256"
            }
          ],
          "internalType": "struct InsuranceProvider.Insurance[]",
          "name": "",
          "type": "tuple[]"
        }
      ],
      "stateMutability": "view",
      "type": "function"
    },
    {
      "inputs": [],
      "name": "getTotalInsurances",
      "outputs": [
        {
          "internalType": "uint256",
          "name": "",
          "type": "uint256"
        }
      ],
      "stateMutability": "view",
      "type": "function"
    },
    {
      "inputs": [
        {
          "internalType": "string",
          "name": "_airlineCompany",
          "type": "string"
        },
        {
          "internalType": "uint256",
          "name": "_flightNumber",
          "type": "uint256"
        },
        {
          "internalType": "uint256",
          "name": "_premium",
          "type": "uint256"
        },
        {
          "internalType": "uint256",
          "name": "_payout",
          "type": "uint256"
        },
        {
          "internalType": "uint256",
          "name": "_departureDate",
          "type": "uint256"
        },
        {
          "internalType": "bool",
          "name": "_isFlightDelayed",
          "type": "bool"
        }
      ],
      "name": "insurance",
      "outputs": [],
      "stateMutability": "nonpayable",
      "type": "function"
    }
  ],
  "bytecode": "0x60806040523480156200001157600080fd5b506200005d6040518060400160405280601981526020017f4920414d20534d41525420434f4e54524143542e20504f472e000000000000008152506200006360201b620004511760201c565b620001f7565b62000103816040516024016200007a919062000170565b6040516020818303038152906040527f41304fac000000000000000000000000000000000000000000000000000000007bffffffffffffffffffffffffffffffffffffffffffffffffffffffff19166020820180517bffffffffffffffffffffffffffffffffffffffffffffffffffffffff83818316178352505050506200010660201b60201c565b50565b60008151905060006a636f6e736f6c652e6c6f679050602083016000808483855afa5050505050565b60006200013c8262000194565b6200014881856200019f565b93506200015a818560208601620001b0565b6200016581620001e6565b840191505092915050565b600060208201905081810360008301526200018c81846200012f565b905092915050565b600081519050919050565b600082825260208201905092915050565b60005b83811015620001d0578082015181840152602081019050620001b3565b83811115620001e0576000848401525b50505050565b6000601f19601f8301169050919050565b610e7280620002076000396000f3fe608060405234801561001057600080fd5b50600436106100415760003560e01c806311165ee71461004657806312b06f2714610064578063b12b14fb14610082575b600080fd5b61004e61009e565b60405161005b9190610a29565b60405180910390f35b61006c610233565b6040516100799190610ae2565b60405180910390f35b61009c60048036038101906100979190610783565b61027e565b005b60606001805480602002602001604051908101604052809291908181526020016000905b8282101561022a5783829060005260206000209060080201604051806101000160405290816000820160009054906101000a900473ffffffffffffffffffffffffffffffffffffffff1673ffffffffffffffffffffffffffffffffffffffff1673ffffffffffffffffffffffffffffffffffffffff16815260200160018201805461014c90610d1a565b80601f016020809104026020016040519081016040528092919081815260200182805461017890610d1a565b80156101c55780601f1061019a576101008083540402835291602001916101c5565b820191906000526020600020905b8154815290600101906020018083116101a857829003601f168201915b50505050508152602001600282015481526020016003820154815260200160048201548152602001600582015481526020016006820160009054906101000a900460ff16151515158152602001600782015481525050815260200190600101906100c2565b50505050905090565b60006102766040518060400160405280601c81526020017f5765206861766520256420746f74616c20696e737572616e63657321000000008152506000546104ea565b600054905090565b60016000808282546102909190610c3a565b925050819055506102ba604051806060016040528060248152602001610e19602491393388610586565b60016040518061010001604052803373ffffffffffffffffffffffffffffffffffffffff168152602001888152602001878152602001868152602001858152602001848152602001831515815260200142815250908060018154018082558091505060019003906000526020600020906008020160009091909190915060008201518160000160006101000a81548173ffffffffffffffffffffffffffffffffffffffff021916908373ffffffffffffffffffffffffffffffffffffffff160217905550602082015181600101908051906020019061039a92919061064e565b5060408201518160020155606082015181600301556080820151816004015560a0820151816005015560c08201518160060160006101000a81548160ff02191690831515021790555060e0820151816007015550503373ffffffffffffffffffffffffffffffffffffffff167f7604c244ca300832339b006884144ae0e6f36b9de9c0b50cfadd3dcdaebe9aaa428888888888886040516104419796959493929190610afd565b60405180910390a2505050505050565b6104e7816040516024016104659190610a4b565b6040516020818303038152906040527f41304fac000000000000000000000000000000000000000000000000000000007bffffffffffffffffffffffffffffffffffffffffffffffffffffffff19166020820180517bffffffffffffffffffffffffffffffffffffffffffffffffffffffff8381831617835250505050610625565b50565b6105828282604051602401610500929190610ab2565b6040516020818303038152906040527f9710a9d0000000000000000000000000000000000000000000000000000000007bffffffffffffffffffffffffffffffffffffffffffffffffffffffff19166020820180517bffffffffffffffffffffffffffffffffffffffffffffffffffffffff8381831617835250505050610625565b5050565b61062083838360405160240161059e93929190610a6d565b6040516020818303038152906040527fe0e9ad4f000000000000000000000000000000000000000000000000000000007bffffffffffffffffffffffffffffffffffffffffffffffffffffffff19166020820180517bffffffffffffffffffffffffffffffffffffffffffffffffffffffff8381831617835250505050610625565b505050565b60008151905060006a636f6e736f6c652e6c6f679050602083016000808483855afa5050505050565b82805461065a90610d1a565b90600052602060002090601f01602090048101928261067c57600085556106c3565b82601f1061069557805160ff19168380011785556106c3565b828001600101855582156106c3579182015b828111156106c25782518255916020019190600101906106a7565b5b5090506106d091906106d4565b5090565b5b808211156106ed5760008160009055506001016106d5565b5090565b60006107046106ff84610ba4565b610b73565b90508281526020810184848401111561071c57600080fd5b610727848285610cd8565b509392505050565b60008135905061073e81610dea565b92915050565b600082601f83011261075557600080fd5b81356107658482602086016106f1565b91505092915050565b60008135905061077d81610e01565b92915050565b60008060008060008060c0878903121561079c57600080fd5b600087013567ffffffffffffffff8111156107b657600080fd5b6107c289828a01610744565b96505060206107d389828a0161076e565b95505060406107e489828a0161076e565b94505060606107f589828a0161076e565b935050608061080689828a0161076e565b92505060a061081789828a0161072f565b9150509295509295509295565b6000610830838361095b565b905092915050565b61084181610c90565b82525050565b61085081610c90565b82525050565b600061086182610be4565b61086b8185610c07565b93508360208202850161087d85610bd4565b8060005b858110156108b9578484038952815161089a8582610824565b94506108a583610bfa565b925060208a01995050600181019050610881565b50829750879550505050505092915050565b6108d481610ca2565b82525050565b6108e381610ca2565b82525050565b60006108f482610bef565b6108fe8185610c18565b935061090e818560208601610ce7565b61091781610dd9565b840191505092915050565b600061092d82610bef565b6109378185610c29565b9350610947818560208601610ce7565b61095081610dd9565b840191505092915050565b6000610100830160008301516109746000860182610838565b506020830151848203602086015261098c82826108e9565b91505060408301516109a16040860182610a0b565b5060608301516109b46060860182610a0b565b5060808301516109c76080860182610a0b565b5060a08301516109da60a0860182610a0b565b5060c08301516109ed60c08601826108cb565b5060e0830151610a0060e0860182610a0b565b508091505092915050565b610a1481610cce565b82525050565b610a2381610cce565b82525050565b60006020820190508181036000830152610a438184610856565b905092915050565b60006020820190508181036000830152610a658184610922565b905092915050565b60006060820190508181036000830152610a878186610922565b9050610a966020830185610847565b8181036040830152610aa88184610922565b9050949350505050565b60006040820190508181036000830152610acc8185610922565b9050610adb6020830184610a1a565b9392505050565b6000602082019050610af76000830184610a1a565b92915050565b600060e082019050610b12600083018a610a1a565b8181036020830152610b248189610922565b9050610b336040830188610a1a565b610b406060830187610a1a565b610b4d6080830186610a1a565b610b5a60a0830185610a1a565b610b6760c08301846108da565b98975050505050505050565b6000604051905081810181811067ffffffffffffffff82111715610b9a57610b99610daa565b5b8060405250919050565b600067ffffffffffffffff821115610bbf57610bbe610daa565b5b601f19601f8301169050602081019050919050565b6000819050602082019050919050565b600081519050919050565b600081519050919050565b6000602082019050919050565b600082825260208201905092915050565b600082825260208201905092915050565b600082825260208201905092915050565b6000610c4582610cce565b9150610c5083610cce565b9250827fffffffffffffffffffffffffffffffffffffffffffffffffffffffffffffffff03821115610c8557610c84610d4c565b5b828201905092915050565b6000610c9b82610cae565b9050919050565b60008115159050919050565b600073ffffffffffffffffffffffffffffffffffffffff82169050919050565b6000819050919050565b82818337600083830152505050565b60005b83811015610d05578082015181840152602081019050610cea565b83811115610d14576000848401525b50505050565b60006002820490506001821680610d3257607f821691505b60208210811415610d4657610d45610d7b565b5b50919050565b7f4e487b7100000000000000000000000000000000000000000000000000000000600052601160045260246000fd5b7f4e487b7100000000000000000000000000000000000000000000000000000000600052602260045260246000fd5b7f4e487b7100000000000000000000000000000000000000000000000000000000600052604160045260246000fd5b6000601f19601f8301169050919050565b610df381610ca2565b8114610dfe57600080fd5b50565b610e0a81610cce565b8114610e1557600080fd5b5056fe257320676f7420696e737572656420772f206169726c696e65436f6d70616e7920257320a2646970667358221220c2eface6488b4628ef3458d2d649986ea889591c5ec2462d27fa5ac6ad35a84a64736f6c63430008000033",
  "linkReferences": {},
  "deployedLinkReferences": {}
}