{
  "_format": "hh-sol-artifact-1",
  "contractName": "InsuranceProvider",
  "sourceName": "contracts/InsuranceProvider.sol",
  "abi": [
    {
      "inputs": [],
      "stateMutability": "payable",
      "type": "constructor"
    },
    {
      "anonymous": false,
      "inputs": [
        {
          "indexed": true,
          "internalType": "address",
          "name": "from",
          "type": "address"
        },
        {
          "indexed": false,
          "internalType": "uint256",
          "name": "timestamp",
          "type": "uint256"
        },
        {
          "indexed": false,
          "internalType": "string",
          "name": "message",
          "type": "string"
        },
        {
          "indexed": false,
          "internalType": "uint256",
          "name": "flightNumber",
          "type": "uint256"
        },
        {
          "indexed": false,
          "internalType": "uint256",
          "name": "premium",
          "type": "uint256"
        },
        {
          "indexed": false,
          "internalType": "uint256",
          "name": "payout",
          "type": "uint256"
        },
        {
          "indexed": false,
          "internalType": "uint256",
          "name": "departureDate",
          "type": "uint256"
        },
        {
          "indexed": false,
          "internalType": "bool",
          "name": "isFlightDelayed",
          "type": "bool"
        }
      ],
      "name": "NewInsurance",
      "type": "event"
    },
    {
      "inputs": [
        {
          "internalType": "bool",
          "name": "isFlightDelayed",
          "type": "bool"
        }
      ],
      "name": "callOracle",
      "outputs": [],
      "stateMutability": "payable",
      "type": "function"
    },
    {
      "inputs": [
        {
          "internalType": "uint256",
          "name": "_premium",
          "type": "uint256"
        }
      ],
      "name": "fundContract",
      "outputs": [],
      "stateMutability": "payable",
      "type": "function"
    },
    {
      "inputs": [],
      "name": "getAllInsurances",
      "outputs": [
        {
          "components": [
            {
              "internalType": "address",
              "name": "insured",
              "type": "address"
            },
            {
              "internalType": "string",
              "name": "airlineCompany",
              "type": "string"
            },
            {
              "internalType": "uint256",
              "name": "flightNumber",
              "type": "uint256"
            },
            {
              "internalType": "uint256",
              "name": "premium",
              "type": "uint256"
            },
            {
              "internalType": "uint256",
              "name": "payout",
              "type": "uint256"
            },
            {
              "internalType": "uint256",
              "name": "departureDate",
              "type": "uint256"
            },
            {
              "internalType": "bool",
              "name": "isFlightDelayed",
              "type": "bool"
            },
            {
              "internalType": "uint256",
              "name": "timestamp",
              "type": "uint256"
            }
          ],
          "internalType": "struct InsuranceProvider.Insurance[]",
          "name": "",
          "type": "tuple[]"
        }
      ],
      "stateMutability": "view",
      "type": "function"
    },
    {
      "inputs": [],
      "name": "getProvider",
      "outputs": [
        {
          "internalType": "address",
          "name": "",
          "type": "address"
        }
      ],
      "stateMutability": "view",
      "type": "function"
    },
    {
      "inputs": [],
      "name": "getTotalInsurances",
      "outputs": [
        {
          "internalType": "uint256",
          "name": "",
          "type": "uint256"
        }
      ],
      "stateMutability": "view",
      "type": "function"
    },
    {
      "inputs": [
        {
          "internalType": "string",
          "name": "_airlineCompany",
          "type": "string"
        },
        {
          "internalType": "uint256",
          "name": "_flightNumber",
          "type": "uint256"
        },
        {
          "internalType": "uint256",
          "name": "_premium",
          "type": "uint256"
        },
        {
          "internalType": "uint256",
          "name": "_payout",
          "type": "uint256"
        },
        {
          "internalType": "uint256",
          "name": "_departureDate",
          "type": "uint256"
        },
        {
          "internalType": "bool",
          "name": "_isFlightDelayed",
          "type": "bool"
        }
      ],
      "name": "insurance",
      "outputs": [],
      "stateMutability": "nonpayable",
      "type": "function"
    },
    {
      "stateMutability": "payable",
      "type": "receive"
    }
  ],
  "bytecode": "0x608060405233600160006101000a81548173ffffffffffffffffffffffffffffffffffffffff021916908373ffffffffffffffffffffffffffffffffffffffff16021790555061100c806100546000396000f3fe6080604052600436106100595760003560e01c806311165ee71461006557806312b06f27146100905780633519a2f8146100bb578063483d45bd146100d7578063b12b14fb14610102578063c0e6976c1461012b57610060565b3661006057005b600080fd5b34801561007157600080fd5b5061007a610147565b6040516100879190610be5565b60405180910390f35b34801561009c57600080fd5b506100a56102dc565b6040516100b29190610c7c565b60405180910390f35b6100d560048036038101906100d0919061099c565b610327565b005b3480156100e357600080fd5b506100ec61037d565b6040516100f99190610bca565b60405180910390f35b34801561010e57600080fd5b50610129600480360381019061012491906108fb565b6103a7565b005b610145600480360381019061014091906108d2565b61057a565b005b60606002805480602002602001604051908101604052809291908181526020016000905b828210156102d35783829060005260206000209060080201604051806101000160405290816000820160009054906101000a900473ffffffffffffffffffffffffffffffffffffffff1673ffffffffffffffffffffffffffffffffffffffff1673ffffffffffffffffffffffffffffffffffffffff1681526020016001820180546101f590610eb4565b80601f016020809104026020016040519081016040528092919081815260200182805461022190610eb4565b801561026e5780601f106102435761010080835404028352916020019161026e565b820191906000526020600020905b81548152906001019060200180831161025157829003601f168201915b50505050508152602001600282015481526020016003820154815260200160048201548152602001600582015481526020016006820160009054906101000a900460ff161515151581526020016007820154815250508152602001906001019061016b565b50505050905090565b600061031f6040518060400160405280601c81526020017f5765206861766520256420746f74616c20696e737572616e6365732100000000815250600054610639565b600054905090565b80341461033357600080fd5b3073ffffffffffffffffffffffffffffffffffffffff166108fc349081150290604051600060405180830381858888f19350505050158015610379573d6000803e3d6000fd5b5050565b6000600160009054906101000a900473ffffffffffffffffffffffffffffffffffffffff16905090565b60016000808282546103b99190610dd4565b925050819055506103e3604051806060016040528060248152602001610fb36024913933886106d5565b60026040518061010001604052803373ffffffffffffffffffffffffffffffffffffffff168152602001888152602001878152602001868152602001858152602001848152602001831515815260200142815250908060018154018082558091505060019003906000526020600020906008020160009091909190915060008201518160000160006101000a81548173ffffffffffffffffffffffffffffffffffffffff021916908373ffffffffffffffffffffffffffffffffffffffff16021790555060208201518160010190805190602001906104c392919061079d565b5060408201518160020155606082015181600301556080820151816004015560a0820151816005015560c08201518160060160006101000a81548160ff02191690831515021790555060e0820151816007015550503373ffffffffffffffffffffffffffffffffffffffff167f7604c244ca300832339b006884144ae0e6f36b9de9c0b50cfadd3dcdaebe9aaa4288888888888860405161056a9796959493929190610c97565b60405180910390a2505050505050565b80156105cc573373ffffffffffffffffffffffffffffffffffffffff166108fc349081150290604051600060405180830381858888f193505050501580156105c6573d6000803e3d6000fd5b50610636565b600160009054906101000a900473ffffffffffffffffffffffffffffffffffffffff1673ffffffffffffffffffffffffffffffffffffffff166108fc349081150290604051600060405180830381858888f19350505050158015610634573d6000803e3d6000fd5b505b50565b6106d1828260405160240161064f929190610c4c565b6040516020818303038152906040527f9710a9d0000000000000000000000000000000000000000000000000000000007bffffffffffffffffffffffffffffffffffffffffffffffffffffffff19166020820180517bffffffffffffffffffffffffffffffffffffffffffffffffffffffff8381831617835250505050610774565b5050565b61076f8383836040516024016106ed93929190610c07565b6040516020818303038152906040527fe0e9ad4f000000000000000000000000000000000000000000000000000000007bffffffffffffffffffffffffffffffffffffffffffffffffffffffff19166020820180517bffffffffffffffffffffffffffffffffffffffffffffffffffffffff8381831617835250505050610774565b505050565b60008151905060006a636f6e736f6c652e6c6f679050602083016000808483855afa5050505050565b8280546107a990610eb4565b90600052602060002090601f0160209004810192826107cb5760008555610812565b82601f106107e457805160ff1916838001178555610812565b82800160010185558215610812579182015b828111156108115782518255916020019190600101906107f6565b5b50905061081f9190610823565b5090565b5b8082111561083c576000816000905550600101610824565b5090565b600061085361084e84610d3e565b610d0d565b90508281526020810184848401111561086b57600080fd5b610876848285610e72565b509392505050565b60008135905061088d81610f84565b92915050565b600082601f8301126108a457600080fd5b81356108b4848260208601610840565b91505092915050565b6000813590506108cc81610f9b565b92915050565b6000602082840312156108e457600080fd5b60006108f28482850161087e565b91505092915050565b60008060008060008060c0878903121561091457600080fd5b600087013567ffffffffffffffff81111561092e57600080fd5b61093a89828a01610893565b965050602061094b89828a016108bd565b955050604061095c89828a016108bd565b945050606061096d89828a016108bd565b935050608061097e89828a016108bd565b92505060a061098f89828a0161087e565b9150509295509295509295565b6000602082840312156109ae57600080fd5b60006109bc848285016108bd565b91505092915050565b60006109d18383610afc565b905092915050565b6109e281610e2a565b82525050565b6109f181610e2a565b82525050565b6000610a0282610d7e565b610a0c8185610da1565b935083602082028501610a1e85610d6e565b8060005b85811015610a5a5784840389528151610a3b85826109c5565b9450610a4683610d94565b925060208a01995050600181019050610a22565b50829750879550505050505092915050565b610a7581610e3c565b82525050565b610a8481610e3c565b82525050565b6000610a9582610d89565b610a9f8185610db2565b9350610aaf818560208601610e81565b610ab881610f73565b840191505092915050565b6000610ace82610d89565b610ad88185610dc3565b9350610ae8818560208601610e81565b610af181610f73565b840191505092915050565b600061010083016000830151610b1560008601826109d9565b5060208301518482036020860152610b2d8282610a8a565b9150506040830151610b426040860182610bac565b506060830151610b556060860182610bac565b506080830151610b686080860182610bac565b5060a0830151610b7b60a0860182610bac565b5060c0830151610b8e60c0860182610a6c565b5060e0830151610ba160e0860182610bac565b508091505092915050565b610bb581610e68565b82525050565b610bc481610e68565b82525050565b6000602082019050610bdf60008301846109e8565b92915050565b60006020820190508181036000830152610bff81846109f7565b905092915050565b60006060820190508181036000830152610c218186610ac3565b9050610c3060208301856109e8565b8181036040830152610c428184610ac3565b9050949350505050565b60006040820190508181036000830152610c668185610ac3565b9050610c756020830184610bbb565b9392505050565b6000602082019050610c916000830184610bbb565b92915050565b600060e082019050610cac600083018a610bbb565b8181036020830152610cbe8189610ac3565b9050610ccd6040830188610bbb565b610cda6060830187610bbb565b610ce76080830186610bbb565b610cf460a0830185610bbb565b610d0160c0830184610a7b565b98975050505050505050565b6000604051905081810181811067ffffffffffffffff82111715610d3457610d33610f44565b5b8060405250919050565b600067ffffffffffffffff821115610d5957610d58610f44565b5b601f19601f8301169050602081019050919050565b6000819050602082019050919050565b600081519050919050565b600081519050919050565b6000602082019050919050565b600082825260208201905092915050565b600082825260208201905092915050565b600082825260208201905092915050565b6000610ddf82610e68565b9150610dea83610e68565b9250827fffffffffffffffffffffffffffffffffffffffffffffffffffffffffffffffff03821115610e1f57610e1e610ee6565b5b828201905092915050565b6000610e3582610e48565b9050919050565b60008115159050919050565b600073ffffffffffffffffffffffffffffffffffffffff82169050919050565b6000819050919050565b82818337600083830152505050565b60005b83811015610e9f578082015181840152602081019050610e84565b83811115610eae576000848401525b50505050565b60006002820490506001821680610ecc57607f821691505b60208210811415610ee057610edf610f15565b5b50919050565b7f4e487b7100000000000000000000000000000000000000000000000000000000600052601160045260246000fd5b7f4e487b7100000000000000000000000000000000000000000000000000000000600052602260045260246000fd5b7f4e487b7100000000000000000000000000000000000000000000000000000000600052604160045260246000fd5b6000601f19601f8301169050919050565b610f8d81610e3c565b8114610f9857600080fd5b50565b610fa481610e68565b8114610faf57600080fd5b5056fe257320676f7420696e737572656420772f206169726c696e65436f6d70616e7920257320a2646970667358221220cfa56ee0bc01b707deceadcd77187d79d9ed92828d9c66c0aaef090a6e044b9164736f6c63430008000033",
  "linkReferences": {},
  "deployedLinkReferences": {}
}